:20000000004B00203D4F0100FDC90110FDC90110FDC90110FDC90110FDC90110FDC90110DE
:1C002000FDC90110FDC90110FDC90110FDC90110FDC90110FDC901103BCA0110A4
:20003C0038C40D00C80000008100000032000F0100C50D00900100004000000096000501D1
:20005C00952B0D00C80000002200000032000F02000000000000000000000000000000008A
:20007C00000000000000000000000000000000000000020000000200020002000000030059
:20009C00040001000000020000000000000000000500010000000700060001000000030026
:2000BC0007000800000000000F0001000100FF0010000800000000001800080000000000CD
:2000DC002200020000000000360001000600000000000000000F0000000000000000000094
:2000FC000000000000000300FFFF00000403FFFF0000FFFF0F00E8030005401F031000016E
:20011C0001000000FF3F0F0008000E0000000000000000000300010F000009010000000042
:20013C000000000000000000000000000000000000000000000000000000000000000000A3
:20015C000000000000000000AD00000100000000FFFFFFFFFFFFFFFF9A1000000000000033
:20017C00000000000000000000000000000000000000000000000000000000000000FAFA6F
:20019C0014000000000000000000000100000101000000000000000000000000000000002C
:2001BC00000000000000000000000000000000000000000000000000000000000000000023
:2001DC0000000000000000000000000000000000000000780008020030000A0000013636DA
:2001FC0001010001020100010301000104010606080400000C0100340D01000F1004010146
:20021C00140100FF1608000020020000220100FF23010001240100FE2501000826020000AE
:20023C0028010001290100012A0200002C01000F2E0200003001000131010008320200FF16
:20025C0034010007350102FF360100003701000138010001390100FF3A01000F3C0200FFA5
:20027C003E01010F3F0100014001041F41010001420100FF43010080440800004E01000882
:20029C004F01000F50010001510100FF5201000A5301008954010001580400005C040000F4
:2002BC006004000064040000680400006C0400007004000074040000780400007C04000092
:2002DC00800100FF810100018201000183010102840100010008000000000000000008045A
:2002FC00FA000000FFFFFF000C1100000000000000001D1100000000000000002E010F0062
:20031C000000FA0000002F0100000000FA000000300100000000FF0000003101000000003B
:20033C00FF00000032010000000003000000330100000000030000003401000000000100FF
:20035C000000350200000000FFFF0000370200000000FF000000390200000000FF000000DA
:20037C003B0200000000FFFF00003D0100000000FF0000003E0100000000010000003F0169
:20039C00000000000100000040010000000007000000412000000000000000006102000034
:2003BC000000FFFF0000630800000000000000006B080000000000000000730800000000CA
:2003DC00000000007B08000000000000000083020500000058020000850100000000100004
:2003FC00000086020000000032000000880200000000320000008A02000000000A000000D5
:20041C00000105090004081000040810020402010101010902000120181A18182C34041E5D
:20043C00000C0E020B040B0A070800110F00A6AAACA4A9A9A399B19ABCB6A8313117191AF2
:20045C0021241B1D1F31313331313118191A22311C1E20313134310000000500BD00B70084
:20047C00B100BC001C00300038000800380102000000000002000000020000000A0000001E
:20049C0002000000020001000000000000000000000000000000000000000000000000003B
:2004BC00000000000E000000C003000080070000000F0000001E0000003C000000780000E7
:2004DC0000F0000000E0010000C003000080070000000F0000001E0000003C000000780004
:2004FC000000F0000000F000010171010101010111010101310101010101800100011001AB
:20051C0061013B001400630173017201620143010001130106013D01350004011201000174
:20053C0000010001000104010401330133013C0144013201360000010001650100013500A1
:20055C00810100010501820183010001660100010001080109010302710230016002110254
:20057C00700201020202020280020002100261023A00410063027302720262024302000275
:20059C00130238000002000204021202000200020002000204020402370037003C024402CE
:2005BC0000023900000200026502000235028102000205028202830200026602000200023D
:2005DC000802090203047104020460041104700402040204010402040004100461040004E3
:2005FC0014046304730472046204430400041304060400040004040412040004000400046F
:20061C0000045104640000040004000444040004000400040004650400043504810464000E
:20063C0005040004830400046604000400040804090400000029370100001D080100023BB7
:20065C004A00000091860100013B4A000000918601000385E10000009186010004E1850192
:20067C0000009186010001F385010001ED850100019186010001918601000191860100000D
:20069C005D560100019186010001918601000191860100019186010002F385010002ED8537
:2006BC0001000291860100005D5601000291860100029186010002B1460100029186010007
:2006DC000405140000009186010003F385010003ED850100033B4A0000033B4A0000039133
:2006FC008601000385E100000391860100005D5601000391860100039186010004F385016C
:20071C000004ED850100043B4A0000043B4A0000043B4A000004051400000491860100046E
:20073C009186010004DB850100005D56010001040C003E20004320280046290D0A00437534
:20075C007272656E742074656D70203D200050726F626C656D207265616420554152542EE8
:20077C000D0A000C436F6E736F6C6520286820666F722068656C70290D0A004279652120E6
:20079C0048697420627574746F6E3120746F207374617274205541525420616761696E0D51
:2007BC000A0056616C696420436F6D6D616E64730D0A2D2D2D2D2D2D2D2D2D2D2D2D2D2D44
:2007DC000D0A683A2068656C700D0A713A207175697420616E642073687574646F776E20C7
:2007FC00554152540D0A633A20636C656172207468652073637265656E0D0A743A20646913
:20081C0073706C61792063757272656E742074656D70657261747572650D0A000001040086
:20083C00003333333333333333333333333333333303010004000000000000000000000064
:20085C0000000000FFFFFFFFFFFFFFFFFFFFFFFFFFFFFFFFFF46485465737400000000005F
:20087C0000000000000000000000000000000000000000000000000045080000010000000E
:20089C00A80B0000080000004A07000001123456789ABCDEF00000000000000000000000F7
:2008BC000000000003007100300160001100700031022003500480000700100061000000F4
:2008DC001400630073007200620043000000130006000000000004001200000000000000CC
:2008FC00000004000400370037003C024400000000000000000065000000350081000000C9
:20091C00050000008300000066000000000008000900010371030103010301030103010330
:20093C002203020301030003100300030003000300030003000300034203000324030603CA
:20095C00000300030403120325032303250323030403040300030003000344030003000359
:20097C00230300036503210035038103000305030003000300030003250323030803090371
:20099C008F0000008F0001008F0002008F000300900000018F0001019000000290000003B2
:2009BC008F0001048F0000058F0008048F0000048A000006510000007F0001003F00040021
:2009DC003F0002003F0001007F0002007B756E6B6E6F776E2D696E7374616E63652D6E61F0
:2009FC006D657D007B656D7074792D696E7374616E63652D6E616D657D00C0467B7374614C
:200A1C007469632D696E7374616E63652D6E616D657D00C000000102030410000810182083
:200A3C0004040810181C10040810181C00000000080000000000000020000000400000007E
:200A5C006000000000000000060000000200000086000000820000000000008000200080EA
:200A7C000040008000000080000400800008008000008080000080840020808400408084A2
:200A9C000000000000000580000006800000078000000000000000000000000000000000A8
:200ABC00000100000000000000000000000000000000000000000000000000000000000019
:200ADC000000000000000000F111010049350100938501009D9A00005DAA00001D8601007D
:200AFC00F54901001DD0000023860100ED0A010038140000240B000091820100A182010059
:200B1C00C1820100B1820100E96701008D710100857C010031000000001000400600000068
:200B3C0015000000FF000000000000000102FFFF602B0020200000000103000000000000B5
:200B5C007BC80110C5BC0110D9B2011033C20110BDAD0110C1B101106DBA011065BB01108A
:200B7C001DC00110A155010000000000FFFFFFFFFFFFFFFF00000000000000000101010178
:200B9C0000C201000300000000000000000000000000000000000000000000000000000073
:200BBC000000000000000000000000000C0B00002421002004000000000000000000000099
:200BDC0014000000200C00001C0000000508808006088080072007C0082007C002400080E3
:200BFC0001008080FE000000FFFFFFFF0000000000000000000000003A01000000000000A3
:200C1C00000000001C0000000000000000000000340C000000000000080000000000000054
:200C3C00AD080100A1380100F9850100F58401009DA6000029D600000000000039CF0000C5
:200C5C0069330100000000000000000101010000002000400700000011000000FF00000061
:200C7C000000000009000000C33B3D3A5D3A713AA10A8F3A0F3BB309495E850A2F3B853BBE
:200C9C00241F00209C2000200C00000004000000FFFFFFFF010000000000000000000000EC
:200CBC000000010000000100001610160E18151C0212032418580302100258010B0101015A
:200CDC000101010101010101080102010100000000000000000000000000000000000000E3
:200CFC000200000000000000FFFFFFFF00000000004002400B00000027000000FF00000027
:200D1C003C0C00008C2800206C0C0000FF0001000000000000000000E40A0000602700208E
:200D3C00340B00003FC00000457A0100B96F010041B5011095A6011015B8011000BE040A73
:200D5C0000BE0208FFFFFFFFFFFFFFFF3545251502030504E02A00200C0D0000FF000000B3
:200D7C0000000000000000000100000006000500000000000000000000000000010000004A
:200D9C00478601000D870100A73201004D8601005D490100DD200100FD8601000A000000F3
:080DBC003020002000000000BF
:200DC4002DE9F84F07468848DFF8108235380068800880F0F38015F057FF874908310B6815
:200DE40000251C17641C990D0AD2C0F13E0110F10A0F4FEAE101D8BF08218C42B8BF0C1C43
:200E0400DFF8DCE1990E10D2590E0ED37246143A1168C1F304211629A8BF20391268C2F3E3
:200E24000462162AA8BF203A0DE0694AD2F87C11C1F304611629A8BF20391268C2F30442C3
:200E4400162AA8BF203A09199346162905DA11F10A0FB8BF6FF0090100E015215D4C5E4E0E
:200E640001F01F0242F4F8522280326812F0030F18BF0125D20828BF45F002050FB145F09D
:200E84000405424692F90740041B052C04DA9479AC4208BF918870D00F28A0F10F0A2BDBBB
:200EA4000AEB0014A4F1F00A4FEA2A29B9F1070F88BF4FF007094E46062E88BF06265EF823
:200EC4002670042404EB8604764634594FEA9508E41B04F0FF06EF0824BFC4F307273E447F
:200EE4004FEA550CAF0824BFC4F307473E446F0828BF06EB146605E000264FEA95084FEA50
:200F0400550CB1465EF829E05FEA58070EF0FF0424BFCEF307273C445FEA5C0724BFCEF3CB
:200F240007473C446F0828BF04EB1E64B6B2ABEB0101AAEB09277E43002906F1800604EBF5
:200F44001624D8BF012103F0FF0334264E43B1B259434FF6FF73B1FBF4F18B4238BF191C7A
:200F6400802889B2918005DA10F1800FB8BF6FF07F0000E07F20D07195711A4800681F29DD
:200F840010604FF0000008D340F2FF128A4206D24908401C8A42FBD301E01F219180134F01
:200FA400114E0F39090940EAC10047EA0001C6F8FB1F0025C6F8FF5FBDE8F88F0C490D4F61
:200FC400424608200F60921D1070BDE8F88FC0463C1100506E62084024220840F02B00200F
:1C0FE4009C130050082009403500094000E7A48030100940FDFDA400AC3F005096
:201000003C000000000000000000000034100000000000000000000001000000000000004F
:1C10200000000000000000000000000001000000000000000800000000000000AB
:20103C003400000000000000000000006810000000000000000000000100000000000000E7
:14105C00010000000000000000000000080000000000000077
:2010700030000000000000000000000098100000040000000000000001000000FFFFFFFF87
:10109000FF00000001000000080000000000000048
:2010A0002C0000000000000000000000C4100000040000000000000001000000FFFFFFFF2F
:0C10C000FFFFFFFF080000000000000020
:2010CC0038140000E410000095A1011091A70110A1C2011009B2011041B80110A5BC011078
:0810EC0085BC0110300000007A
:2010F400280000000000000000000000141100000000000000000000FFFFFFFF0000000093
:081114000800000000000000CB
:20111C00341400003011000065C2011069C101101BC2011091BA011005BC0110E5BB0110EA
:04113C00330000007C
:20114000341400005411000071C20110A5B6011099BF011045B60110B5BA011025BC01104B
:041160003400000057
:201164002400000000000000000000008011000000000000000000000000000008000000AE
:041184000000000067
:20118800240000000000000000000000A41100000000000000000000000000000800000066
:0411A8000000000043
:2011AC00240000000000000000000000C8110000000000000100000000000000080000001D
:0411CC00000000001F
:2011D0000000000004210020040000000000000000000000200000007010000030000000E6
:2011F0001C1100000C2100200400000000000000000000000C0000003013000018000000FA
:2012100040110000142100200400000000000000000000002400000048130000180000007D
:20123000000000001C21002004000000000000000000000010000000A01000002C00000051
:20125000CC1000002C21002004000000000000000000000020000000641100002400000078
:20127000FFFFFFFF3421002004000000000000000000000028000000881100002400000004
:20129000FFFFFFFF3C210020040000000000000000000000580000003C10000034000000E9
:2012B000FFFFFFFF44210020040000000000000000000000100000006013000018000000FE
:2012D000FFFFFFFF4C2100200400000000000000000000001C000000AC1100002400000074
:2012F000FFFFFFFF5421002004000000000000000000000038000000F410000028000000E5
:20131000FFFFFFFF5C21002004000000000000000000000054000000001000003C00000080
:1813300018000000000000000000000040130000080000000000000032
:1813480018000000000000000000000058130000080000000000000002
:18136000180000000000000000000000701300000800000000000000D2
:0813780003000000400D00001D
:0413800013F06EBF39
:041384000100000064
:0413880000000E0053
:04138C0000000F004E
:041390003200000027
:041394000100000054
:0413980070200020A1
:04139C00000200004B
:0413A000FF850100C4
:0413A400FDC901106E
:0413A8000000000041
:0413AC00000000003D
:0413B0000800000031
:0413B4000000220013
:0413B800F41C002001
:0413BC00000000002D
:0413C0000000000029
:0413C400080000001D
:0413C8000000000021
:0413CC00000000001D
:0413D0000000000019
:0413D400080000000D
:0413D8000000000011
:0413DC00000000000D
:0413E0000100000008
:0413E400841F002042
:0413E80006000000FB
:0413EC0001000000FC
:0413F0002C1D002090
:0413F40000000000F5
:0413F80000000000F1
:0413FC0000020000EB
:0414000000000000E8
:0214040070472F
:021406002900BB
:021408000100E1
:02140A002400BC
:02140C003300AB
:02140E003400A8
:021410003000AA
:021412000100D7
:0114140001D6
:08141800030000004C0D000070
:081420000000000000000000C4
:0414280000000100BF
:04142C0000000300B9
:0414300083C4011060
:041434003C14000064
:041438003C14000060
:04143C0000000000AC
:041440009000000018
:041444009000000014
:0414480000000000A0
:04144C00D820002084
:041450002F810100E7
:041454002000000074
:04145800B00C0000D4
:04145C005C0B000025
:0414600009C30110AB
:04146400AF4601008E
:04146800874A0100AE
:04146C0095C801100E
:0414700097C8011008
:041474000000000074
:04147800E90C00007B
:04147C00000A000062
:04148000180A000046
:04148400E809000073
:0214880008005A
:02148A00090057
:02148C0001005D
:02148E0000005C
:01149000015A
:041494000000000054
:041498000000000050
:04149C00000000004C
:0414A0000000000048
:0414A40009870100B3
:0414A800B96701001F
:0414AC006971010061
:0414B000F9620100DC
:0414B400E75E0100EE
:0414B8006155010079
:0414BC005D0A0100C4
:0414C000998301000B
:0414C400DD3B01000B
:0414C8000DC801103A
:0414CC001DC8011026
:0414D0000800000010
:0414D40024000000F0
:0414D80018000000F8
:0414DC0028000000E4
:0414E00020000000E8
:0414E4003C000000C8
:0414E8000C000000F4
:0414EC0034000000C8
:2014F0008D05002161040021A1040021A5040021CD040021710600212107002149070021CF
:201510003B050021010500218B070021AD07002179050021F8B51047F8B50E4600210125C0
:20153000AD0430470D480378D80702D046488121416000F00FF89B070BD0134C2078FF288F
:2015500007D0FF2121700F490F24240220436031C882F8BDF8B50248004700006B02002183
:20157000E54C0000094801E00848000C064C05492278FF2A01D1CA7A22706031C882704600
:20159000801C00470062084018080021070F080800F090F805990A0A6C2A09D108207861AC
:2015B0002069401C38600A312061059100207861F8BD0000F0B4084710B501480047000056
:2015D0008909000000F018F8E1B250290BD0042801D0062807D10D490978C90703D121786B
:2015F000090700D402200A490A780C21114202D0084980220A60FEBDFEB5074908470448F8
:20161000017840229143017004480047C80000211701002100E200E0F1CC000003D1000092
:20163000FFB5054685B0034C2047FFB585B0DE01014C2047F73F0000CB4100000248812106
:20165000024A41601047000000500440674C000070B503461546012906D0002906D0114ACC
:201670002846FFF757FF70BD0F4800E00F480524834203D84008641E002CF9DCE34001200D
:2016900040031818820B012907D00649002380312846FFF741FFE0B270BD0249044B6C317C
:2016B000F6E70000835C0000A0BC862300830D23E8070021F8B51A4E0546716B1948CC0924
:2016D000E401002D11D01849097802290FD0007B044372B60120154F4002B84711482038BA
:2016F0000088C109C90704D016E0C07AF0E7407BEEE70F497463CC61400AC0070CD00120E3
:201710008003316B002D01D0014300E08143084631630749403948630020B84762B6F8BD72
:2017300080020021880000219B0200217B3F00004040044010B5224A0021516121498968B2
:20175000C90009D42149204BCA0598424B6B01D8134300E093434B631D49FFF72BFF10BDB9
:2017700038B51A4D287F002827D11A480088C009C00722D1124C606900281ED1684600F0F5
:201790008FF868460078012817D168464078102813D208206061686A4009400120600E4ADB
:2017B0000021D1620D4A02211160012108432060032108436862206038BD0948804738BD32
:2017D00000400440180000210000930880020021CF680000680000210011044080E200E0A7
:2017F000C33B00000749002800D00420064A72B60978C90701D0105800E0802062B640B2E3
:20181000704700006B0200215860044010B5034CFFF7D2FE20680028FAD110BD0011044000
:2018300010B541200E49C00088470E490246886B496B90244B01C104C90E0B430A49634363
:20185000497D5943094B9B68FFF7EFFE10BD10B5FFF7E6FE040001D1FFF7E2FF204610BD90
:201870007D3C000080500440800200210040044010B501880A05930F084A03D18905890D1B
:20189000112901D0904710BD90470446012803D172B6FFF7C5FF62B6204610BD45260000D3
:2018B00003B40148019001BDA56F000000000000010003000A001F005900EB003902EA041B
:2018D000F9099712EB1FA132784A0A66FA828C9E63B617C964D6EDDEC1E3E0E5FF00000032
:2018F000A36100007F1407134D00F1242E1F133FB00A3F0007FF00003040004001400340F3
:2019100007400F404F40CF40CF41CF43CF47CF4FCF3FCF2FCF1FCF0F000000000F0008003E
:2019300000003F00000040003F000000040068000E00DC00060043001A000500000000001B
:20195000020000003F00000000000400C00000000400C0000000070050C00091007070C066
:201970000091007082312100319110B10070018101B100A18231329110B10191111041810E
:2019900041224F40F106007051C0019130181039833108D01831416F3100319110B18314DA
:2019B00014165B680070251050C00091F4C3C0C02014036F3110410422C082312100319109
:2019D00010B163393110410482C082312100319110B163393110A2C082312100319110B1E5
:2019F000501015310514059200703F6452C0311031066131C102426412C131102139710604
:201A10005131E102426400708A65996588C0208250398039001E9F4041C001301814181A95
:201A300089C0308260398039001EA94041C001301914191A3C64369110B1349110B154B0FE
:201A5000007154A064B0F0800022AF404012B09032B053825339533985643F6411C122C1DA
:201A7000426470C1C26811C1C2C0426470C1C76850C000912772989215161416421053108D
:201A9000F0C12182313131398139313151B070B272652772999270B262107310F0C33182BF
:201AB0002131213981391B107265E2C08231608280318039020061B00071329110B151A014
:201AD00061B0277230C2F36800008012B09032B0007050C000912772999262107310F0C3CE
:201AF000318221312139813951B070B27E652772989270B242105310F0C1218231313139FD
:201B1000813931311A107E6551A061B02772B0C018693F6401C122C1426401C1C2C0426428
:201B3000151A3C64359110B153828564C012B09032B000703F6472C281C0426422C111C1AA
:201B5000426402C011C1426462C031C3426462C311C1426402C311C14264538253398564B5
:201B7000E2C347641122404142C281C8426452C211C1426472C2E1CE426402C281C8426496
:201B900002C201C84264B0C0546900703F6442C201C8426452C211C0426472C2E1C0426449
:201BB00002C001C1426462C001C3426422C101C1426462C301C1426402C301C14264538285
:201BD0008564007061B000711214231C7A4D339110B10070329110B17269007061B00071A8
:201BF0001318321C8649329110B10070339110B17E690070C2C047641510C2C01216476416
:201C100041311514C0C0803105145410A07804040070E6C0863101CC161467106182F0C37A
:201C3000010417140070067305720B720E7250B00071818060B050A092804122C345808018
:201C5000F1C11004301601110114016CD661D761D861D961DA61DB61DC61DE61E061E2617B
:201C7000E461366339639180F2C0210421318280422A1214321601112114016CEE610B6254
:201C9000F4613963EE610B62F4613963E661E661E661E661E661E6619464E661F964E66109
:201CB0002A65E6615665E6614667E6611012B0900E720673057210123090A761F0CF3C672A
:201CD000D4C103C0C0C3546440785091507810926078209270783092807840929078609266
:201CF0003078909110824039F00601101031101400924267E661BCA0E2A054A0F08050225E
:201D10001546408000222B470D6240A02D828D318D391082F1C0100409101A824A391A04D5
:201D30001082803910040E10AB10BC10C21063642972E0CF3C6713B003B0C86653B050B062
:201D500054B064B013B0A5661082E0223846AE660071418001222B47F08010224B46F0225B
:201D7000184764B03122384263B0CE661082E02238467066386264B06F818F318F3DD0DF0B
:201D9000FF923C670071418001222B4764B0F0805022654263B01182C1226046CE660567CC
:201DB0001182D122524670665262618172818131813D8231823DC0EFF19202933C670B62DD
:201DD000B081C091D381978290A2D3187F4EF30B1316E31CA44AC391E3813B149062BA1C37
:201DF0008B46231E8B4AE31C8B4E90B207228B4290A21B1A9662E31CA44AC391E3813B1885
:201E1000AB1CA04E9B1CA24ABC1CA442B2101082D0229D42F0801022A4466364A566A46213
:201E3000AB1094629B10946200703082F1C0100463B00071A86ABC10E0B00070B281C29171
:201E5000D281018212185181121841828131813D121CBF4AE2B032B0B0DFF2923C67F1C72A
:201E70002114C34E12C86291729131B0E1B0007008C006C000C86091709100700182B081EE
:201E9000C091D0811018518110180614E18042828231823D201CE44AE2B02122E84632B06E
:201EB0000510A0DFF5923C672122E842E2A032B031824139F0C00104011EF642181610C04C
:201ED0001030081C04476010103C0610F1C76114FA4E16C8669171818131813D161C014B47
:201EF000769131B006C008C0007061818131813D408280390118F11C174B0114B080C02270
:201F10001747BCB033B090EFF1920F933C67007003A063B064B0EFB05665007140800022D6
:201F30002B4764B02A65EFA00071408000222B4764B003B03862018262818231823D80EF80
:201F5000F19202933C6703A05665E661A2806364E66150B00071E661E092D08200223D47BF
:201F7000C0B20070A080F022594330B002C1623101C0A080001E5243F0225343A0F5603109
:201F9000603953632010101A136F236E11161216546B0070297C00001DBA0000000000007B
:201FB00000000000000000005D7A0100FD7E0100251E0100C17E0100178601001186010003
:201FD000117F01000000000083850100F5260100C9330100F1760100CD940000C380010031
:201FF0000DE3000079610000D9650100E147010000000000453D01003783010001D100008F
:20201000F6C0080000004100000001C3100000024210000003C414000004C518000005C602
:2020300018000006C71C000007C920000008CB24000009CD2C00000AD33800000BDA50005C
:20205000000C18B800000D3FA600000E3FA700007FFFFF3F00F6C004000000C31200000162
:20207000C416000002C518000003C61C0000044418000005C820000006C924000007CB2A76
:20209000000008CE32000009D24000000AD85800000BE59000000C2BBC00000E3FAB000068
:2020B0007FFFFF3F000500001D5F0100357E0100FD0601006B8501008D8601005D020100B5
:1C20D0003D6C0100C3850100CF850100C985010010200000652000006520000023
:2020EC002DE9F04FADF11C0D13F0E0FD16F0D0FA804608200CF0D0FD0FF0C8FE10B1A0A08B
:20210C0016F01AFCAB4C6068406880476068C16804A888476068836804AA00200146984756
:20212C00A06010B99EA016F007FC15F025FCA34FC4F8E070A24DC4F8E4500026A4F85C6002
:20214C009D48C4F8DC009F4BC4F8E8309E4AC4F8EC209E49C4F8F01004F5C877C4F86C7114
:20216C0004F1C805C4F8705104F1DC00C4F8740114F086FC04F51E70964BC4F87801964A0F
:20218C00C4F8103104F1A0072262914DC4F87C719249C4F8B85005F16E006162914BC4F831
:2021AC00BC00914A63678E4DA26790492567B4F85C70E16747F00100A4F85C008E4BC4F8E4
:2021CC0038328E4AA2618A4FC4F81872894DC4F8285204F17000C4F88C0114F03BFC8A4BC5
:2021EC00C4F88C33864FC4F884738949C4F89413864AC4F89023884BC4F89C33854FC4F86E
:20220C0098738749C4F8A413844AC4F8A0237D4DC4F88853844BC4F8AC33824FC4F8A873A4
:20222C008249C4F8B413D44AC4F8B023B4F85C0084F8806340F01000A4F85C00D04BC4F821
:20224C00BC33CE4FC4F8B873CF49C4F8C413CD4AC4F8C023D54D2E706E70CD4B2E61CB4FBF
:20226C00C4F8CC33CC49C4F8C873CA4AC4F8D413DFF84093C4F8D023C94BC84FC4F8DC3385
:20228C00C949C4F8D873C74AC4F8E413C84BD94FC4F8E02309F10E01D74A1E700888C4F857
:2022AC00E8730E30167080B215F082F807466F610FB916F0B3F900978DF804609DF8050091
:2022CC00CE4966F301008DF805009DF805004B4666F383008DF80500D8899DF805200880C3
:2022EC0066F307128DF80520ADF8060068696946082215F07DFB2F626E6212F0C3FECE4DA5
:20230C002878012802D0304603F02CF8CB48CC4F0670AB463E709BF80000012802D0304642
:20232C0003F020F840461DF013FB02F005F815F05FF894F82F0412F0C1FC012003F012F8FE
:20234C000EF015FCCF4806709BF80000012802D0304603F007F80DF063FDCB4FCB4A07212B
:20236C00334607F1140014F0B3FCC94DB8464FF48042C84928784A8089460870EFE0C04669
:20238C0052616E646F6D5F736565644175746F6D617469632829206661696C656400C0464D
:2023AC0043727970746F206F70656E206661696C656400C008020020CD7F000009360100C3
:2023CC00D575010069A1000025DB0000BD1C010004050000A5CA00004585010011820100EB
:2023EC002DBB0000C9AC0000814C0100F5610100F1410100351D010035860100B9970000BD
:20240C00BDFB0000016400007D170100515F01004D7A000059E50000015C0000413000007A
:20242C00390E0100017E000069CD000045960000E868410907D32E208DF8140005A810F0B0
:20244C00F5F9B0480068410807D325208DF8140005A810F0EBF9AB480068810807D326208C
:20246C008DF8140005A810F0E1F9A6480068C10807D327208DF8140005A810F0D7F9A148F1
:20248C000068010907D329208DF8140005A810F0CDF99C480068C10909D38DF815602D2056
:2024AC008DF8140005A810F0C1F996480068010A09D38DF8156030208DF8140005A810F053
:2024CC00B5F990480068410A09D38DF8156035208DF8140005A810F0A9F98A480068C10A9F
:2024EC0009D38DF8156023208DF8140005A810F09DF984480068810A09D38DF815603620F0
:20250C008DF8140005A810F091F97E480068C00B10D3D9F8080068B10746D7F80CA03846CB
:20252C0016F006FA384613F05BFD5FEA0A07F4D1C9F80860606D68B116F0AAF8616D666541
:20254C0003911DF005FA0398A06510F06FF9704813F0E6F93046E86016F0E6F92878684939
:20256C000B783BB1684F183F17F8181F884223D05B1EF9D1304626E0497E0100194B0100E3
:20258C00056F0100B9C90000BDA20000856D0000117601007DEA0000E1430100E16E010083
:2025AC002D4E01005D7201006D790100382B0020052C002080190020F8684FF0FF3116F07A
:2025CC00AFF978690088E86016F0A6F92878A98910F0A0FA16F05CF898F8011088F80160A9
:2025EC008A080DD2C90816D31DF0B2F9304602F0B9FE12E0E7850100072C00209C18002047
:20260C001DF0A6F99BF80000012802D0012002F0A9FE16F03DF81DF09BF9E868800905D32D
:20262C003A4814F00BF90028039035D1E868000CFFF4FEAE14E0C046C9200020092C0020F0
:20264C00012C0020D02909D18178E970C17869700179A97087686F61C168A96115F022FD41
:20266C00287811F045F9002803903FF4E1AE0178D029E7DAA06510F0D9F8254813F050F930
:20268C00EEE7C046062C0020E41F0020F586010078070020CC20002015F0FAFF94F86C10B1
:2026AC00491E84F86C101DF053F9039801788DF81410A0654778CFB1DC2F0DD0DD2F0BD086
:2026CC00E42F09D0F32F07D0DE2F05D0DF2F03D0E82F18BFDB2F0BD10AF05CFE9DF8140075
:2026EC00162805D103A813F01BF901E010F09EF89DF81400162893D0054813F011F98FE767
:20270C002813002084070020481300206C020020600200202DE9FE4FDD4981460122A1F117
:20272C0030000260D8480768002FFCD0D74AE34EC027D848D84B17603268920808D23246F8
:20274C0052F8042C03F14104120C42F0F00222704FF0000A8346C1F800A0DFF88CC3DBF882
:20276C000810E04F0191880E43D2480E41D3802018744FF6D802A3F8512018703868C0F32D
:20278C000464162CA8BF203C1E460F3E307800F01F001628A8BF2038844223D0624602F107
:2027AC00980EE44ACEF800A0251A022D05DC15F1020FB8BF6FF0010500E0022540191568B4
:2027CC0000F01F05844245F4F855A6F866504FF001051560E8D110682E4616601068CEF826
:2027EC000050106838460068C0F30420162808DB06E0A7F1D0000068C0F30460162800DB41
:20280C00203800EB2170401C162805DA10F10A0FB8BF6FF0090000E01520D54E00F01F001F
:20282C0040F4F850A3F85900306880083ABFD148C0F800A041F040616246C80E8E0E80F036
:20284C00010000F00100106086F0010000F001009060019810F02EFB0146182013F08CFBE7
:20286C00A7F13806CD4C30683568A4F10408C0F3870105F0030041EA0021D8F80400C04D27
:20288C00446840F2FF32534688B22C21009028464038A047F06AC0F30D011C2013F06CFBDF
:2028AC00B549706A014000F07C400143142013F063FB316A01F47C000904090C01431020CC
:2028CC0013F05AFB7D4AB06A1268C0F30351C0F30344520813D2DBF80020130511EB23715E
:2028EC0003D41029A8BF0F2100E05146120414EB227403D4102CA8BF0F2400E0544644EAAE
:20290C00011400F47F4200F0FF01B9F1220F42EA044241EA020124BF00F0804001430C2073
:20292C0013F02AFB954CB9F1220F32BF01202068C0F30070B9F1220F4FEA400040F0200046
:20294C0085F8090126BF2068C0F3407001208D4EB9F1200F40F0100085F8090138BF5146EA
:20296C0006D33168C80C00F44070C1F384510143282013F001FBB9F1200F26BF3068C0F344
:20298C0001505046B9F1220F4FEA400040F0600085F80C0126BF2068C0F3C0605046B9F156
:2029AC00220F4FEAC00040F0800085F8010126BF2068C0F345505046B9F1200F4FEA8000D5
:2029CC0040F47C40A5F89C0138BF6F490AD3306801038A15920501F47C1100F00F0011438E
:2029EC0041EA0031082013F0C7FACC3F4FF480002860664AB86D40F21E216FF31F40814263
:202A0C0016D93868030E03F00F0113F00F0FC0F3034018BF491E072805D006280EBF07208C
:202A2C00801C00F00F0041EA0011A2F108000170DDF804C0CCF381477F1E02D07F1E31D07A
:202A4C002CE02068810C29D24FF480412960D2F80210430AC0F3033703F0800321F08F0194
:202A6C000B4347EA0301C2F80210D2F80130060A66F30303C2F80130116800F0E70721F03E
:202A8C00E70147EA01000CE09402224300600C4040100940AC3F0050156208404FF000406B
:202AAC002A46106005480068C0F3C0070FB94020A8624FF40070286402E0C046B03F005063
:202ACC0020684027C0F3C14040F0300085F8C800CCF3815080B3401E08D0FFE7401E23D072
:202AEC00022122E08813005000002043012013F001FF06460420314610F000FC042013F029
:202B0C00F9FE8642FAD12248066826F07F4013F0FDFCD8F81400036807214FF06022300E00
:202B2C0098474FF4806028600321042010F0E6FB09E0C0462C2009400420012110F0DEFB33
:202B4C00144813F0E3FC203C206800F03F0085F8CB0FD8F80030124ED96830680220884797
:202B6C0010480D4C076001212160BDE8FE8FC0460000094094042A43FCFCFC008C13005025
:202B8C0040A00C409813005000803F400A600840A83F0050BD37860094046042A4010010B1
:202BAC002C20094000600C402DE9F04FDFF860B30F460446F80BADF1140D80F0F181DFF86F
:202BCC004C83B80F80F0A681B80880F09381DFF83883F80A80F0F580380B80F0CD803809BE
:202BEC0007D2F80FC0F00E8227F0804710F0C6F908E215F04DFD814614F0C6F9002800F031
:202C0C00B580082015F0FAFB002840F0AF80802015F0F4FB002840F0A98004A80DF016F8FE
:202C2C00012803D10498002800F0A0805846C9300078002840F09A8000240125E0B215F055
:202C4C006BF948B1867A3EB1857290F9090005FA00F0C0B212F0BAFF641C032CEED344467D
:202C6C000320207504F1B40015F008FD48461CF06FFEC948002632460168066050F8081CEC
:202C8C00C64940F8086C04F1380015F009FD304614F01EFB15F0FAF8A168401A010BE069F3
:202CAC00C1F1FF3282422CBF08444FF0FF30E06194F8200020B12069E169B1EBC02F25D9A2
:202CCC0014F066FB314600B12946081C1BD0D14840F6090101804680417B05F00F0221F06A
:202CEC000F010A434273017B06F00F0321F00F0143EA010202733146416015F053FA418839
:202D0C0011F4406FFBD084F82050E66112F0FAFCC14831460660022014F024F9022013F0AF
:202D2C0079F911200BF072FC207818B96068483015F0BEFCB948007810B90E200BF066FC46
:202D4C0094F8210020B184F82160052013F062F9B348A0612675B4F98C00B4F98E10884284
:202D6C0014BF022007200EF0FBF902E048461CF0EFFD27F0080739E74446201D056812F055
:202D8C0009FF38B12846ED696FF4807100224FF00073A847E06848B115F078F8E268616892
:202DAC00801AC860000BC8600026E6609D4904F13800002215F074FC27F4006702202075C3
:202DCC0014E715F065FC064614F0DEF84446216F0028884600F08880002900F0858092495F
:202DEC00042504F138000022257515F059FC30461CF0AEFD04F1B40015F040FC15F046F801
:202E0C00E060D8F810006060D8F81000416AC90803D3036A294600229847012011F064F938
:202E2C00824815F0BFF965684FF0010985F8159060680FF023FCD5F808A040F60A02D01F3B
:202E4C00564600F1010C00E01E46736833B119888A4203D0884218BF8C45F5D1002171605F
:202E6C00727B09F00F0322F00F0213437373D8F80C201288904225D06046904222D02C8E6E
:202E8C000CB3696305F13002518095F83C0001F00F0320F00F00034385F83C3095F83D00BE
:202EAC0009F00F0420F00F0044EA000385F83D307260707B01F00F0420F00F0044EA0001B1
:202ECC00717300E0E160504669460AF07DFC684615F058F915F002F8504615F063F9514698
:202EEC00484614F03FF802E030461CF031FD27F4806787E008F0DAFA40467030006808B9E7
:202F0C0027F002077EE0C04688210020902100209022002015F0BCFB8146042013F0EAFC25
:202F2C00C0B1207DB0B14046006898B12569064614F0ACFF801B2061000B2061A84202D2F0
:202F4C0040194008206140F6C41181422CBFB0F5967F216148461CF0FBFC12F01BFE88B169
:202F6C00E56920466FF4807100224FF00073A847404668300068002808BF47F0020701D0F4
:202F8C000FF0FCFF2046A46900214FF080630A46A04727F0005735E014100440B539010064
:202FAC0015F076FB22490E6846B306F1280106C90A234FF0E0450B40154008BF002B1DD1B5
:202FCC0006F1280191E8300006F1280393E8060006F12803AA43A14383E806001CF0B8FC55
:202FEC00B16869B1002D08BF002C09D030692246B6F93C10B4682B46A04701E01CF0A8FC98
:20300C0027F480471FB15846394615F059FB05B0BDE8F08F9C2B0020000004602A0D000021
:20302C0051CE0000C1EE00007D73010001010E04102200202DE9F04FADF1840D1A910446E6
:20304C001B920DF15F00CA491C93082214F0D0FC2046694612F026FF5FEA000B03D100201A
:20306C0001461F90FAE102200027A41C1D90D44E1F97204602A911F05CF95FEA000800F03D
:20308C00E9811F990DF1410016220EF0E8FC9DF809707F1E00F087807F1E40F0D381B8F13D
:2030AC000A0F40F3DA81A41C06A80422214614F09FFC241D07A80222214614F099FC42F27B
:2030CC000B000DF11E0111F021FDBDF81E00BDF81C10884200F3C181A41C14F8010B14F806
:2030EC00017B14F8015B8DF8410014F8011B8DF842700DF141028DF84350204605F0F8F916
:20310C00CF4909780028044400F0A78101290BF1020700F08D814FF400500DF1570111F06B
:20312C00F5FC0DF157000DF15F01082213F0BCFF40B11A990DF15700082213F0B5FF0028F5
:20314C0040F0768142F2010006A906F075FA42F20B0007A906F070FA42F205000DF141012B
:20316C0006F06AFA0DF1420142F2060006F064FA0DF1430142F2070006F05EFA11A942F261
:20318C00090006F059FA9DF8440028B1022840F04F8142F2030001E042F20D000DF1450158
:2031AC0006F04AFA44E1B8F1040F40F35681A41C14F8010B14F8017B14F8015B8DF8410050
:2031CC0014F8011B8DF842700DF141028DF84350204605F08DF90028044400F03E811A9879
:2031EC0008A905F007FC9DF83E00002840F002819DF84400002878D1B6F84E70002F00F097
:20320C00F780B6F85200874207D0308B718B884201D108F00FFFB06D20E0B76D4FF400505E
:20322C0004A911F073FC15F073FB4FF6FF791F9D1E90AA46B6F84E00A84240DCB06D4FF677
:20324C00FF7149450AD04FEA490707EB89073818808811F013FCB06D3F1820D1B6F84E3086
:20326C000746002B08BF1F9D16D01F9D1846BF1FBF1DFA782AB1401E05F10105F8D1BF1D41
:20328C000AE015F005FAB6F85210491CA6F852101CF05EFBB6F84E30AB4200F08E801A9891
:2032AC000AF028FAB8800120F870FD788DF83E50B888ADF83F001F9B8DF82B309AE0B88825
:2032CC0011F000FC0146082204A813F0EDFE40B1388801041E9815F0D7F982453CBF82460F
:2032EC00A9466D1CBF1DADB2A4E7B6F84C70002F7ED0B6F85000874207D0308B718B88427E
:20330C0001D108F097FE706D1FE0776D4FF4005004A911F0FBFB15F0FBFA4FF6FF791F9DD8
:20332C001E90AA46B6F84C00A8424BDC706D4FF6FF71494509D009EB49173818B0F81F0074
:20334C0011F09CFB706D3F1821D1B6F84C300746002B08BF1F9D18D01F9D1846213F2137C4
:20336C00BA7F3AB1401E05F10105F8D121370CE06C01000015F08CF9B6F85010491CA6F8AE
:20338C0050101CF0E5FAB6F84C30AB4215D01F99384621220EF063FB1A980AF0ABF9A7F816
:2033AC001F000123FF2039462122BB770546787208A8FD7214F01CFB1CE061205BE0C0467E
:2033CC00A0100020B7F81F0011F07CFB0146082204A813F069FE38B179681E9815F054F972
:2033EC0082453CBF8246A9466D1C2137ADB299E7642040E09DF83E000DF14101162240F069
:20340C0004008DF83E000AA814F0F2FA9DF844000BF1020748B19DF856500DF14500294673
:20342C0010F031FC2D1A8DF83D5008A80FF084F81D9808EB0005AD1CA8B21D9006E0C04666
:20344C000A02002044440BF10207A41C1D9887423FF70FAE1D98022803DC1F990A46672029
:20346C0005E0ABEB00021F980BF10201921C1B9B19801C990A8021B0BDE8F08F2DE9F04F87
:20348C00D048CF4C007800212422ADF13C0D08232070684615F038FA4FF0010A04F118052B
:2034AC00002128466A468DF818A015F029FA656015F022FA294604F108020FF05FFB6070DF
:2034CC00102013F0B3FE011C0ED0D0200027087022464F7052788A70CF700F7126468F606D
:2034EC003078CF6011F050F915F0D2F8DFF804830D90002688F8036013F0C2FA4022314634
:20350C0008F53B700EF0ABFABB4C04F1080001882C2707FB01F00DF071FBC8F8100300281D
:20352C0000F06381E07A21894143480000EBC1000DF064FB0028C8F8140300F05681E188A4
:20354C002089484380000DF059FB0028C8F8180300F04B81208980000DF050FB0028C8F842
:20356C001C0300F04281208980B13246D8F8101389180E75D8F8101389180E71D8F81013FE
:20358C00401E114402F12C028E81EFD1A188880000EB01100DF032FB0028C8F8200300F0AA
:2035AC002481B1464FF6FF7BCDF8309016E0A77A87B13046D8F820134919CB68C200B44606
:2035CC0042F803C0C9687F1E00F101001144A1F804B0EFD109F101001FFA80F9A08848457E
:2035EC0000F3F2809748FF210822C01D0EF037FA9448FF21082288F8FB1210300EF02FFA0B
:20360C000325B14688F80C532789A8F80EB3B7B104234846D8F81C13820002F801A0D8F886
:20362C001C1389184B70D8F81C1389188D70D8F81C137F1E00F101001144CB70EAD18148B4
:20364C00042205210227343000F804AF427081707F1E80F803A0F7D17A48A78880F83C50C2
:20366C0098F880534FB14846D8F820137F1E014400F11400A1F802B0F6D1022088F8F002BD
:20368C001DB1D8F8840300B1804714F0F3FE98F92E0414F034FD13F009FA14F083FC14F007
:2036AC005BFA14F04DFA554D072455F8040B00B18047641EF9D114F097FA444604F1540009
:2036CC00016809B112F02CF984F85E60207810F00FF9002809906FD149480078012802D0B5
:2036EC00484601F03FFE474804F160050670206E002859D12D1D606E00284DD1C4F86090B9
:20370C004148C4F89001C4F86490404FC4F8947184F86A603E4DC4F8985184F86B603D4B82
:20372C00C4F89C31A6703C4AC4F8A02184F86C603A49C4F8A4113E49C4F8C810384FC4F841
:20374C00A8713C4FC4F8CC70364DC4F8AC513A4DC4F8D050344BC4F8B031384BC4F8D430C3
:20376C00324AC4F8B421364A0D98C4F8D8201CF0EFF804F21541522006F03CFA94F82F04BB
:20378C0011F0C0F814F076FE0D49E220103114F065FF0B4840682AE0284613F04FF80B9093
:2037AC000BA812F0BDF8A6E7284613F047F80A900AA812F0B5F89AE709A812F0B1F885E712
:2037CC008C1E00203C0C0020A37AD8F820734846850005EB0015D8000DF010FAE919EB192E
:2037EC00C860D86800287FF4E2AE14F017FF0FB0BDE8F08F0802002080190020180300200F
:20380C00C9200020042C0020C30E01002F8601007D6D0100A9860000A1D30000DD730100DC
:20382C005961010019AF0000619D0000A56D01005B02010055A50000CD2701009500010005
:20384C0019310100F40400202DE9F04FB94C0546A07AADF1340DC0000DF0D0F90028089015
:20386C0000F0A88114F014FF0B900AA9822004F08BFCBDF82800002834D14FF000084FF60B
:20388C00FF76ADF8288024E0ADF81460BDF82800ADF81660FF210822ADF8100006A80EF09A
:2038AC00DEF8A77A57B143461946089AC8007F1E01F10101135010448680F6D18DF824806D
:2038CC00D42004A902F0CEFEBDF82800401CADF82800A088BDF828108842D5DC82200AA992
:2038EC0002F0C0FEC34F0020A0464FF6FF79A2463988ADF8280006E0BE4FBDF82800398830
:20390C00401CADF82800BDF82800814240F34281B94800784FF0000B01265C4608E0BAF8B6
:20392C000600641CA4B23CE0B348641CA4B20078A04208DC002EDFD1BBF1000F2ED1E87F75
:20394C000028D9D02AE0BDF828008DF802406946ADF80000D02004F017FC0028E4D19DF81F
:20396C000C30012B08D19DF80B0028B90DF1030014F052F90028BFD12F7D002F0CBF0522A4
:20398C0009225E469F42CFD10DF1030005F1150113F0AEFC0028C7D04FF0010BB8F8060051
:2039AC000024A04265DDBDF82800ADF802406946ADF80000D12004F0E7FB0028AFD1BDF877
:2039CC0004008145ABD0ADF8100004A9D42004F0DBFB002840F0038106A8291D082213F079
:2039EC0087FC00289BD028886F88ADF81400BBF1000FADF816702AD0287B98F80A708DF833
:203A0C002400381C08BF00200FD00899024600208B88994509D0BDF828609E4205D0521E27
:203A2C0001F1080100F10100F2D1874207DC0B981BF08EFF0898002800F0D880D4E008997E
:203A4C002A69C000BDF828700A5040188780D42004A902F007FEBBF1000F0AD0A87F9DF818
:203A6C000610884205D08DF806006946D12002F0F9FDB8F80600A0427FF43EAFB8F80400C6
:203A8C00DFF878A1002499E006AB184614F0C4F850B9291D1846082213F02AFC002808BFCF
:203AAC00B8F8040000F088806F882888ADF816702E7BADF8140098F80A708DF824603B1CB0
:203ACC0008BF00200FD008991A4600208B88994509D0BDF828609E4205D0521E01F10801CC
:203AEC0000F10100F2D1874206DC0B981BF030FF089800285ED05BE0089A2E1DBBF1000FA4
:203B0C000CBF00212969C00011501218BDF8280031469080082206A813F06AFF9AF8800313
:203B2C0030B1DAF8D0231AB1BDF8101030469047002603E080190020761CB6B2B8F8060074
:203B4C00B04221DDBDF82800ADF802606946ADF80000D12004F018FBE82803D0BDF804009D
:203B6C008145E9D1BDF810000023ADF80400AF7F8DF8073004A98DF80670D42002F072FD41
:203B8C00D120694602F06EFDB8F80400B04213DDA04208D00B981BF0DBFE089808B112F0EA
:203BAC001FFA002023E00B981BF0D2FE089808B112F016FA1A201AE0641CA4B2A042E7DD24
:203BCC00ADF81040D42004A904F0DEFA00283FF45BAF0B981BF0BCFE089838B104E00B989A
:203BEC001BF0B6FE089808B112F0FAF919200DB0BDE8F08F881900208B19002008020020E3
:203C0C002DE9F04F1E4617460D468246ADF1540D14F07EFE5C4C3C2204F110010860002153
:203C2C0002A80DF01CFF296802A801606968416029890181287A032804D0022003258DF804
:203C4C00140002E003258DF81450207818B104F1340014F080FCA08E6178ADF812001F2941
:203C6C00B4BF481C0020BAF1050F607041F080014FF0000011900BD0BAF1040F05D0BAF107
:203C8C00020F08BF41F0600104E041F0200101E041F040018DF81510ADF8307001200B9674
:203CAC00BE498DF816000A680DAB1A60496859608DF83D50BAF1050F8DF83E504FF0050719
:203CCC008DF83C7012D0B4F85E00BAF1040F08D0BAF1020F0FD1B4F86400401CA4F864001D
:203CEC0009E0401C80B2A4F85E0004E0B4F85800401CA4F858009DF81C00012807D19DF9C7
:203D0C001F0010F0D9FDB0F1FF3F00F03881A4489DF817700178A3481FB990F86B208A42F7
:203D2C0007DB012F40F02B8190F86A208A4280F226818046BDF830009DF83D6012909DF87E
:203D4C003C70DDF84490BDF824500A9813965FEA000B1BD098F88013002900F01081D8F8B2
:203D6C009813002900F00B8100F0FF008847D8F8981306B20BF47F008847361830B2001D5C
:203D8C0000B2C83086B202E0B4180020C8260DB12D1DADB298F82404012809D147B1824895
:203DAC0013993F1897F80490405C8019401D86B21298401980194844801C80B213F036FADE
:203DCC00071C00F0DC8012987319002D4844DDF84490388103EB070078600EBF4846B8191E
:203DEC00801C78224946C7F8A40007F10C000DF036FE1298FF21102280194019A7F84C0081
:203E0C0007F13C000DF02BFE07F12C000F2110220DF025FE87F8009087F801907868BDF8E2
:203E2C0030200B9913F0E4FD07F184000DA90B2213F0DEFD07F1900002A913F06AFDBDF80F
:203E4C001200A7F89A009DF8140087F89C009DF815000DF1160687F89D00326869460A60B4
:203E6C00706848609DF800104846012908BF01209DF80110012908BF40F004009DF80210FF
:203E8C00012908BF40F008009DF80310012908BF40F010009DF80410012908BF40F020002A
:203EAC009DF80510012908BF40F040009DF80610012908BF40F080009DF80710012908BF02
:203ECC0040F48070A7F89E009DF81E0087F8A0009DF81F0087F8A1009DF8400087F86C000F
:203EEC00BDF82410A7F8A81029B10A46D7F8A400089913F07DFD9DF8260087F8AA000A9835
:203F0C00C7F8AC00B7F8A800C8B1D7F8A400B0B17868401E7860F82101707868401E7860D0
:203F2C0080F80090B7F8A810B7F8A8607868401A786038898019801C38817868B865B7F8E2
:203F4C009E00410A13D39DF83F10052917DB00F0040100F00100084311D108F1900420467C
:203F6C000DF0FEFC9DF83F10204613F071FA98F80000394610F008FC012011900AE0BAF11C
:203F8C00050F07D1E06A12F051FBB4F85800401CA4F85800119815B0BDE8F08F450800005E
:203FAC0080190020080200201C0400002DE9F04F064692F808B0307D09AF8846ADF1240D0D
:203FCC0004933528039205D0114606F170000A2213F00EFDDFF8C8C238F07F0506BF604607
:203FEC0000884FF6FF700590F08A800934BF002008203076F08AC00834BF10208020707615
:20400C00F08A400903D260460E30007800E00020B076F08A41082CBF20240024000928BF74
:20402C0044F010047568002108F07F08307D06916D1E02280EDB0C2808DC0C2803D102208B
:20404C0044F40854069044F0030404E00D280CBF02200120044396F88C0008B144F008046E
:20406C00E110220900D328B1DFF8BC9299F8243413B908B1DF204CE149086ED306F12401FF
:20408C00DFF8A8A296F88D50079100EB0A011AF805300A7999183389491DCAB29918A44B41
:2040AC001A8808908A42C0F2368100284CD0049A039906F1840009F031FF07990028086033
:2040CC003FD0806AB0F1FF3F39D070680023401E8DB196F88E10524600F80119515D491E71
:2040EC00C9B241B18A1992F88320491EC9B2002900F80129F6D1079970660968896AB16296
:20410C00090E00F8011996F82A1000F8011996F82910089A00F8011996F8281005F0030552
:20412C0000F8011902F0070141EAC501017071683589091ACAB27060A918318105E0DB27A5
:20414C0000E0F3277770E7E00023F08A7370C00828BF44F0100475686D1E336DA3B9B36DB0
:20416C0093B999F83D14012903D13089B0F5EE7F06DA200904D202290AD144F4005401E0EA
:20418C0044F48054012002E044F408540220069099F8020001280CD099F8800348B196F885
:2041AC006B00042805D1022024F48054069044F4005444EA8834B8F1020FA4B20AD0B8F1D9
:2041CC00030F10D1ED1F09F58661284614F03EFA6D1E08E0B9F81604001205F8010999F85D
:2041EC00160405F80109069802280CD0B8F1000F15D0BBF1000F0CD004990598814208D1E4
:20420C0044F040040BE0BBF1000F08D1B8F1000F05D00599081205F8010905F8011944EA0A
:20422C008B24BBF1020FA4B209D0BBF1030F0ED10399ED1F284614F009FA6D1E07E003990F
:20424C000888001205F80109087805F80109BBF1000F05D00498011205F8011905F80109C5
:20426C003878F8B933480178307D0D2814D068B9306D28B999F80004411C89F800140AE007
:20428C0099F82504411C89F8251404E099F80E04411C89F80E14014605F8011904E0C04672
:2042AC001A06002044F48074201205F801092C7070683789401BC1B275607818308120090C
:2042CC0026D3B06D00B1306299F8800310B1307D0D281DD1746A14F1150001D114F09EF96F
:2042EC00A16A481CA0623289306AB162471B0092D21B019090B20290706A96F88C202B460E
:20430C00153009F0D5FE00281CBF7070071C07D10020707005E0E5277770F32013F013FBA6
:20432C00F8B209B0BDE8F08F080200201C0400008E1900203C2B00202DE9F04FD54D286A49
:20434C00416EADF11C0D02A888474FF00009D24FCDF80890B8688DF80C90002833D112F02D
:20436C00BDF8B8B112F0BAF8012813D012F0B6F805280FD012F0B2F80C280BD012F0AEF834
:20438C000D2807D012F0AAF80B2803D012F0A6F80E280BD112F0A2F8787000280CBF4846A4
:2043AC000120B870286A00F1200408B914F036F9216807F1180088474FF4FA703885B74E36
:2043CC00FE6206243C63DFF8D882EA6998F83F444FF0010A4946080100EB41108018867F56
:2043EC002EB9437F491C9C42C9B2F4D102E0417FA14204D1824202D011F058FCEA69DFF816
:20440C00A4B2686A1BC88BE81B0097F90100012805D00D2803D00E2818BF484600D10520CF
:20442C008BF8000098F86D1450699F4C50F82100C4F89C0013F0D4F9632005A910F00AFF6D
:20444C0098F83F0411F09CFE064694F88E006AF3020084F88E0011F027FA042825D011F0CF
:20446C0023FA032811D094F8900040F00F0084F8900094F8970069F3030084F89700B07BE0
:20448C00052814BF2420292016E094F8900040F00F0084F89000292384F8943094F8970077
:2044AC0069F3030084F8970008E094F8900040F00F0084F89000212084F8940094F89500BD
:2044CC0069F3871084F8950011F0EEF9042818D0B37A7BB99DF8140094F89510401E60F3E4
:2044EC00050184F8951094F8960020F03F0040F0180014E09DF8141094F8950061F30500A9
:20450C0005E094F8950020F03F0040F0020084F8950094F8960020F03F0040F0200084F8BA
:20452C009600B189B07BB4F88E200A23401D484390FBF3F161F3CF02A4F88E20B08994F862
:20454C0090201923800390FBF3F102F00F00D4F890200F23484390FBF3F161F31C22C4F87A
:20456C009020E86994F89820017F61F3020284F8982094F89810007FC01060F3C30184F8C8
:20458C00981098F92E0410F097F9B0F1FF3F05D0010828BF4FF6FF70A4F89A0030897168F4
:2045AC003368EA69401E414303EB51004FF47A71B0FBF1F0A4F8A00090690078A4F88290CB
:2045CC00C4F8849094F88D3084F8A4006AF3030384F88D3013F048FFC8B9B089334A98F8E9
:2045EC003F64B1FBF0F0C0B21070B1FBF0F03049022E887006D011F057F9032807D1052210
:20460C005C2001E00222A8202A4B1A704870BB682E6A5BB3484610F03DFFF87898F83F14A8
:20462C00884212D13A7998F86D142E6AB8688A420DD102214A468DE80600366D80344B4685
:20464C0002AA2146B047EC601BE02E6AB8687168884719482B6A80F800A01E6817488034F6
:20466C005946224607F11803B04707E0803422461248346807F118035946A047B860686AA1
:20468C00A86298F83F0498F86D64F87007B03E71BDE8F08FC81B0020C01E0020FB060100DB
:2046AC0008020020D82B0020DC170020E41F0020642100200C200020CA200020382A0020EE
:2046CC00B0B50446BC480768ADF1480D002F00F0AC812078401E122800F2A781DFE810F05C
:2046EC006E0157013D01280120010901F600E800C800B700920067005D004C00A50134007C
:20470C0026001C0013007B6C002B00F08E810020A21C0146984788E1F86B002800F0858139
:20472C00684621460CF0B0FAF96B7CE1386C002800F07B816846002101220DF090F96078E9
:20474C008DF80000396C6EE1F86A002800F06D81684600210E220DF082F9A11C684613F087
:20476C00B3F9A57BA1890022ADF80A1005B101228DF80C20F96A57E1B86B002800F0558120
:20478C006846002102220DF06AF9A5788DF8015060788DF80000B96B45E1786B002800F025
:2047AC004481684621460CF06FFA796B3BE1386B08B36846002114220DF051F9A5788DF862
:2047CC000150A3680193A289ADF80820A17B8DF80A1060788DF80000E57B8DF80B50237CEE
:2047EC008DF80C3094F911208DF80D2061690491396B684688476068002800F0168113F082
:20480C0051FC12E1B86A002800F00F816846002124220DF024F96078A11C8DF800000DF13B
:20482C00020013F051F904F10C0103A813F04CF9257EE08A04F119018DF818500B22ADF84D
:20484C0016000DF119000BF039FBB96AEBE0786A002800F0EA806846002102220DF0FFF8B7
:20486C00A5788DF8015060788DF80000796ADAE0386A002800F0D9806846002112220DF02C
:20488C00EEF8658862796078ADF8025023798DF80520E11D8DF80000A5798DF804300B22C2
:2048AC000DF107008DF806500BF008FB396ABAE0F869002800F0B9806846002101220DF030
:2048CC00CEF860788DF80000F969ACE0B86910B120460FF0DBFCA07820B9A069002800F08B
:2048EC00A48003E0A069002800F09F8011F078FB9BE07869002800F0988068460021132261
:20490C000DF0ADF86D46A01C0168406829600B22686004F10A0102A80BF0D0FA796982E038
:20492C003869002800F0818020460AF07BFC7CE0F868002879D0684600210E220DF08FF82A
:20494C006078A11C8DF800000DF1020013F0BCF8A089ADF80C00F96865E0B868002864D07E
:20496C006846002114220DF07AF8A01C01686D46296040686860A07A0B2204F10B018DF819
:20498C0008000DF109000BF099FAB9684BE0786800284AD06846002110220DF060F86078D2
:2049AC006588211D8DF800000B22ADF8025001A80BF084FA796836E0981E00203868A0B335
:2049CC006846002119220DF04AF8A01C01686D46296040686860A07A410824BF01218DF8C4
:2049EC000810810824BF01218DF80910C10824BF01218DF80A10010924BF01218DF80B104B
:204A0C00C10924BF01218DF80C1030F07F001CBF01208DF80D000B220DF10E0004F10B01B3
:204A2C000BF04CFA39686846884712B0B0BD70472DE9F041BF4CC04DDFF800836088ADF1E6
:204A4C00400D41087ED308A804A90EF0E7FC012869D1404624300068D8B10769CFB10620E1
:204A6C0002268DF808000022ADF80A600BABADF80C2002AE009396E803000C23B84740B9D2
:204A8C00BDF82C0060850C9FE7620D98206313F0DFF9022605AFBDF81210BDF8100084F859
:204AAC0024603A46A1830FF0A1FA30460EF06AF9BDF820009DF81C60A5F8400009A985F85F
:204ACC00426005F1500013F028FDBDF8220005F146063946A5F84E00304613F01EFDBDF8EE
:204AEC001200B5F84010A5F84400502013F001FCB5F84E10532013F0FCFB4A20314613F0EE
:204B0C00ADFD95F84210E12013F0FAFBB5F844104B2013F0EEFB05F10A00102113F037F94B
:204B2C000120207008E013F0F3FEE06001200EF029F9002013F086FAA01C012113F011F9CD
:204B4C0020464088C10807D301F0BEFEA01C042113F007F92046408880080DD3E06A11F006
:204B6C0065FD12F08DF800B2A082E08201F0ACFEA01C022113F0F5F86F89780805D305F15A
:204B8C000A00012113F0EDF86F89B80805D305F10A00022113F0E5F86F89780915D342209F
:204BAC000EA910F057FB95F85A0005F10A06032818BF042802D1286E11F020FD11F03AF90A
:204BCC003046102113F0CDF86F89B80907D30DF0B9FA05F10A00202113F0C3F86F89F8091F
:204BEC0007D30AF06FFA05F10A00402113F0B9F86F89780A13D395F85D0013F023FA95F860
:204C0C005D0005F10A06032803D15220012113F069FB30464FF4807113F0A3F86F893809AA
:204C2C004ED395F85C0005F10A0600283CD0401E34D0401E02D0401E2ED03CE095F8581025
:204C4C00472013F05DFB95F85910542013F058FBB5F844104B2013F04CFBB5F840105020A3
:204C6C0013F047FB09278DF8117001238DF812308DF8133095F842008DF8100004A813F0E7
:204C8C0076FC95F85A00012815D1E87898B13046202113F07CF80EE003200AE0522001213A
:204CAC0013F020FB022004E05220012113F01AFB01200EF003FD3046082113F052F86F8915
:204CCC00454617B1A86813F013FEE9886878490819D3A97802094FF0000601D301290BD079
:204CEC0040090BD3012909D0A01C012113F04FF8A86813F0FDFD01E010F0B4F86E70A81D19
:204D0C00012113F02EF8608880B90D4C60684FF0FF3113F005FE48B160780EF0E9FD041CB0
:204D2C0004D0FFF7CDFC204613F0BCF910B0BDE8F081C046B4180020301A0020D816002076
:204D4C008C1E00202DE9F04FAF4AB94C02F12001096804F11000243201601268011D0A60E7
:204D6C00AA49ADF13C0D0546082212F09DF928B9A7490A682846026049684160A548A649FF
:204D8C00C0F88C10A64EC0F898600025C0F89450C0F8A450A14FC0F8A850A24BC0F890705D
:204DAC00A14AC0F89C30D0F88C10C0F8A02000F18C0609B128468847A8469C4D0C22CDF858
:204DCC002080414605F128000CF049FE4FF4FA7941F27077C5F82C90688D2F6340F0190026
:204DEC006885FEF74BFBA86009F028FA05F18400E060AF688F4C41466662F520A76013F042
:204E0C007FFA8D4E07200827707006F10C01B77006F118000AF04CFCB060707813F040F84D
:204E2C0000B14746B07813F03BF808B947F010078249B06813F0CFFA8149C82206F124003D
:204E4C000FF0F4FE7F48AB46102F706010D1606A70B1C26862B1FF208DF810004FF6FF7716
:204E6C00ADF8127004AEADF8147096E803009047754D05F1140005F108010AF019FC68602A
:204E8C00404613F0DFFA4FF0020A47460E90AE1E06F8028F384686F801A013F043FB0146AE
:204EAC000E9A6868C9B210F059FE7F1C022FEFDB664905F120004A460FF0B8FE644D05F155
:204ECC00080029460AF0F4FB6860606A002846D00769DFF880916FB1009449460CA80A68D5
:204EEC00898802600CAE818096E8030001234246B847606A002832D0C26852B149460CA8E8
:204F0C000B68898803600CAF818097E803009047606A20B3076917B306208DF80800ADF85A
:204F2C000A000AAEADF80C8002AD009695E80300534642464546ADF82850B847666ABDF860
:204F4C0028007769A08057B1BDF8280002AE401CADF8280096E8030052460AABB847E8208A
:204F6C00012113F0CDF9E720092113F0C9F9606A062628B307691FB38DF818600425ADF866
:204F8C001A5008A8ADF81C8006AB009093E8030042462B46B84718B9089D1935A8460FE052
:204FAC008DF818604046676AADF81A5006AE09907C69ADF81C8096E803002A4609ABA04783
:204FCC00CDF8208040460CF083FDE0200C2113F097F94F20032113F093F95720052113F0DC
:204FEC008FF94E20042113F08BF95920032113F087F912F093FB0BF10200012112F0C7FE6C
:20500C00FFF716FDFCE7C046A8FF0100600D0000F01200503C0C0020E15201004D570100EA
:20502C0065FF0000895A010091DD0000B41800208C1E0020D8160020781D0020115C0100C7
:20504C00BD7A01003D7C0100081E00201904010088200020880D0000BA482DE9F84F00250D
:20506C00B94CB749056094F8E200002800F06381012800F02F81B54E02283CD0032840F0F3
:20508C005A8151F8250CD4F8B8100029A0F5C060C4F8D400B8BF49420028B8BF40428142C7
:2050AC0026DA4FF08057D7F8A4014568B4F8BC0030214FF47F42082300903046A847D7F801
:2050CC00A4014568B4F8C00004214FF4F802122300903046A847D7F8A401B4F8D07045686D
:2050EC0020214FF440620A2330460097A847012584F8D8501AE151F8258C13F054F92F46D1
:20510C0000B901273946924F38680028FCD0B146012609F10409D9F82CA03E6009B113F091
:20512C0048F9CAF30720C4F8BC0013F03CF9AA4600B9B2463B68002BFCD0D9F800B0BAF127
:20514C00000F3E6001D013F034F9CBF38440C4F8C00013F028F9AA4600B9B2463B68002B04
:20516C00FCD0D9F81C90BAF1000F3E6001D013F020F9C9F38120C4F8D000B8F5C061C4F822
:20518C00B81000F09C8094F8D80068B9C4F8D410D4F8C000C4F8C800D4F8BC70C4F8C47012
:2051AC00D4F8D030C4F8CC30D4F8D400D4F8BC30002854BF02226FF0010204F1C8010F6811
:2051CC0000EB40008018421000EB927207EBA2000860D4F8C810C4F8C43000291CDD1E2906
:2051EC003CDDD4F8CC0030B93429B4BF15391E21C4F8C81025E02A29BABFD4F8C8000B3870
:20520C001E20C4F8C800D4F8C4003F28B4BF401C3F20C4F8C4001FE0D4F8CC00032812D077
:20522C0011F10B0FC6BFD4F8C8000B30301CC4F8C800D4F8C4000028C4BF401E051CC4F8AC
:20524C00C450032508E011F1150FC6BFD4F8C8001530301CC4F8C800C4F8CC504FF08057DC
:20526C00D7F8A401B4F8C43030214FF47F424568364800930823A847D7F8A40104214FF405
:20528C0000321123456831480096A847B4F8C860D7F8A40104214FF4F802122345682B48F2
:2052AC000096A847D7F8A40120214FF440620A23B4F8CC60456825480096A84701E084F8C2
:2052CC00D85040F2FF50404502D8801C40452DD208202EE051F8251C1E4F4BF2F520484390
:2052EC00060A3868C0F3814001280AD111F0C8FC10F0EAF913F063F83111C010484306EBE6
:20530C00E03694F8E50030B91348006820F07F403618760801E084F8E5501048310C066026
:20532C00012741600E4D8760287808B90B2000E0052084F8E40003F0BFFDBDE8F88FC04684
:20534C002D400C402C500C40C415002000A00C4000800C40B43F0050102009403C600C406B
:20536C00690C00002DE9F04F0546ADF11C0D13F08FF9AB4FAB4C012D069000F0EA8012F0A9
:20538C000FFC002800F0E1809E480078002840F0DC809D480078002840F0D7809B48007804
:2053AC00002840F0D2809A480078002840F0CD8098480078002840F0C880974800780028C1
:2053CC0040F0C38095480078002840F0BE80384621460F78006A002F00F13C0040F0B580CC
:2053EC00914C0068257880476168DFF834B2DFF84082AF00401AB0FBF7F6E068A1680027C0
:20540C00BA46524681464E4572EB0A0201DA814206D83A4650468E42904145DA084600E0A5
:20542C003A460146891B4FEAE573BA41084611462A4612F009FC4FF47A72002306460F465A
:20544C000DF042F80BF038FD534600F6FC024FF00001B61A9F417042B94122DA734802688F
:20546C00394630460DF030F80F4606464FF000017042B94115DA12F03FFA0546206913F078
:20548C0043F910B1206912F053F8284612F053FC2069314613F028FA206913F021FA002082
:2054AC0000E00120444620704446207800284CD1002738460CF0B8FE00B10127C1463846A9
:2054CC0000284FF000073ED15648007800283AD1DBF82000574C436CA068022102AA9847FF
:2054EC009DF8080078B3544DDBF82020A06895F900103E4611F1020F18BF01264FF00108A1
:20550C0036B1926B95F900109047DBF82020A0684A4E96F9001011F1020F03D0926B96F962
:20552C00001090476FF0010030703E4B2870384683F8008012F06EFEDBF82000C169A0684B
:20554C0088478BF8017089F8007006981AF000FA54E001200CF068FE06981AF0F9F9207800
:20556C00DFF8E890012837D1012012F053FE11F065FD50BB13F08CF8002502268246DFF84A
:20558C00C080386AA8F80250416E267002A888470295386A8DF80C602D4A2A4BD0F850C07F
:2055AC00294630468DE803001068414602AAE04700281AD42449464691F90000FE60401C5D
:2055CC00087050461AF0C4F906E02078012803D10020207012F0F0FA11F030FD70B92078E4
:2055EC00022804D14846007808B113F017F848460078012802D020780228FCD007B0BDE8E4
:20560C00F08FC046052C0020072C0020092C0020062C0020BE200020BF200020C0200020B1
:20562C00C81B0020CA200020E41F0020B80D0000082C0020C01E0020BC200020BD2000201E
:20564C00DC17002069200100C6200020C9200020C81E00202DE9F04FA74E814606F1200064
:20566C000068416EADF12C0D03A88847AF4C04F10C000768002F00F037814FF0000838896C
:20568C0079689C4BCDF81C80C500097818781035890906D340F6485191FBF0F16D1805F594
:2056AC00AF753B7D68438500352B0CBF47464FF4FA570DF12601E8200FF0CCFD9DF82600D6
:2056CC00032808BF44F62067E068007DED19352803D1D4F8E403804745430220B3468DF86D
:2056EC002000884FDBF82000069507F10803826E186806A9904701208049814D087029784F
:20570C008BF80080012901D0FFF72CFEE0680589466811F07DFE3088000935D394F8807317
:20572C00E1688FB34B6A4F6E986AB0F1FF3F25D027B3421C9A628862030E07F80139E068DA
:20574C0090F82A0007F80109E06890F8290007F80109E06890F828003870E268106A009587
:20576C000190801B281A80B20290916A506A92F88C203346153008F09BFC00E0DB20D4F80C
:20578C00C473002840F0A680294630460BF060FC642009A90FF05EFD5B4894F880730078E2
:2057AC0037B994F82F0409F01BFA012805D08DE009F016FA012840F08980DFF850A1A81CBE
:2057CC0087B20DF125010AF170000780E9200FF041FD9DF82500012805D13D46C5F3022012
:2057EC0040F0180005E02D1DADB2C5F3022040F0080006F8010D06F8015D55469DF82400F9
:20580C00A5F862800028EE670CBF41484148CDF80C8002238DF8103005F12806A6F8028024
:20582C00C5F8B80005F16007B86195F83500A5F8468020F00F0040F0030085F8350012F046
:20584C0027FFDFF8D4A00A90B9F1010F1DD0B9F1040F1AD0B9F1000F14D0B9F1050F0ED0AA
:20586C00B9F1030F08D194F83F0410F089FCC07B022818BF3E1C0AE005F1600607E0DFF899
:20588C009CA004E005F1440601E005F12806DBF820001C4B046D02278DE880019868314636
:2058AC0003AA5346A0471E49002808800BD41D4991F900006035401C08700A98CBF80C509F
:2058CC001AF046F812E00A981AF042F81A200BF051FE0BE0002F08BFE420F8D0124880F899
:2058EC000080E420B84701E012F098FE0BB0BDE8F08FC046E41F0020C81B0020BF20002096
:20590C00C9200020C01E002067210020DC1700204E9055550E7A5555BD9E00007DD900004E
:20592C00F41E0020C6200020092C0020080200202DE9F04FAC4C07460020ADF13C0DDFF82C
:20594C00A482ADF80C0004F10C0000688946017D252900F00281703005A903F04BF8002841
:20596C0018BFC0B240F03B8101A804A90CF01AFE0FF09AFF042814BF41F2081543F2C82573
:20598C0004A901A80CF00EFE98F82B2201993B684FF47A7A504650430AFB1100C01A85426C
:2059AC00C0F2D880D8F80422521A0AFB02F1C91A8D4200F3CF808542A34609DD002807DDE1
:2059CC0095FBFAF04FF4916100B201FB003038609DF81F00002857D042F204000DF1360126
:2059EC000FF094F812F094FF0699441A42F206000DF135010FF08AF89DF835009DF81D1003
:205A0C00FF2804BF0A208DF83500FF2908BF0A219DF835609DF81C507448B4FBF0F2701892
:205A2C0084B25646A81054437043A04298BF041C41F20810241805A811F039FA9DF81C1004
:205A4C003D68B0FBF1F24A43821A714392B272438B1A891A5B1B491B8C4201D9002908D561
:205A6C006142994212D2002B10D5B4FBF6F109B203E06100B1FBF6F189B23A684FF491636C
:205A8C0003FB01253D6001E03D68002006460DF1120102A80CF086FD0298D8F80412002469
:205AAC00B5FBFAF280180290814203D998F82B32834202D998F898712FBB9DF81C00B618E6
:205ACC000004B04298BF361A9DF81F00002808BF9DF8200024D09DF81C00B6FBF0F085B258
:205AEC00BDF833000EF0EEFF9DF83120014628460FF050F9054611F0C7F9024608A9284671
:205B0C000EF0A8FD0CE0814204D8BDF81200401CADF81200BDF8120098F89B110CF04CFB2B
:205B2C0089F8000088F8F501DBF80C00007D052811D19BF8150470B999F8000003A9ADF840
:205B4C000C0042F20C0003F077FDBDF80C00A8F8F00100E06524204641E00FF0A5FE042876
:205B6C0014BF41F2081543F2C825214800784FF47A7404FB00F13868491BA1F5FA62824218
:205B8C0006D2A1F57A61B0FBF1F24A43801A386068460DF10E010CF005FD3868009998F8E1
:205BAC002B2204FB010154430091611A8D4211DCA4F5FA648C42BCBF00F5FA60386098F875
:205BCC009B11B8F878010CF0F7FA0146002089F8001002E099F80010652088F8F5110FB0B2
:205BEC00BDE8F08FA010002008020020A0860100CB1200202DE9F04F00289A461446ADF102
:205C0C00340D00F0F48011F47C1F40F0ED8011F00F0F00F0EC8007460591002006900B90E7
:205C2C000A904FF0000909904D4608954FF0010BCDF810B0054648460790059805990BEA3D
:205C4C00000021EA0B014FEA4B0B401E059100F0AB80401E70D0801E5DD0001F40F0BE808D
:205C6C0042F205000DF10E010EF050FF9DF80E60002E00F0B3801CB1276694F86B0006904A
:205C8C000720152607F8010B022301A907F8016B42F2010007F8013B0EF038FF684603A952
:205CAC000CF080FC06980DF0F9FA0146019A00983E4640180090824206D8801ABDF80C30BF
:205CCC000090581CADF80C00009B50084946804609041804030C194300044B4610EB08008F
:205CEC0041EB09010AF068FA0090BDF80C309DF80C009DF800209DF8011006F8010B181255
:205D0C0006F8010B9DF8023006F8012B9DF803200935BF1D42E00220152607F8010B0423F9
:205D2C0007F8016BBAF1000F07F8013B0CBF09989AF800002D1D4EE01CB1E76594F86B0071
:205D4C00069005201526049B07F8010B0DF10F0107F8016B42F2040007F8013B0EF0D6FED9
:205D6C0002A80FF053FE06980DF098FA02999DF80F609DF80F30069AED1D4018000200EB8E
:205D8C006600B0FBF3F03E4602903F1D06F8012B9DF808109DF809309DF80A2006F8011B13
:205DAC0006F8013B327018E00320152607F8010BBAF1000F07F8016B034607F8013B04BF2E
:205DCC000B9807F8010B05D09AF8000007F8010B9AF801006D1D07F8010BADB2059800284B
:205DEC007FF42BAF2E4661E011F00F0F01D000205DE080468A4602264FF4803908F102058E
:205E0C0009EA0A002AEA090A4FEA4909B0F580301AD0B0F5803014D0B0F500300ED0B0F5F7
:205E2C00802009D0B0F5002004D0B0F580102AD1072404E0062402E0052400E004240027A1
:205E4C0004E00224012701E001242746A81C214600F030F847B104F00F04C0F30A0141EA66
:205E6C00C42141F4004105E004F07F0400F0FF0141EA042105F8011B0912871929702D186D
:205E8C00B81C6D1C86B2BAF1000FB9D1022ED8BF00260BDDB01E4FF6FE7708F8010BF019AB
:205EAC00C0F3022040F0A00088F8000030460DB0BDE8F08FF0B504460846ADF16C0D401EA8
:205ECC0070D0401E0DD0801E00F00981401E00F0EF80401E00F0E180401E00F0AD8000201C
:205EEC0042E142F2010007A90EF010FE42F20B0008A90EF00BFE42F206000DF165010EF0EF
:205F0C0005FE42F207000DF166010EF0FFFD42F2050019A90EF0FAFD04A809F079FB064683
:205F2C000DF1670142F209000EF0F0FD9DF86700002808BF002503D0022010F0C4FC0546B7
:205F4C00204607A9042211F053FD241D08A90222204611F04DFDA71C9DF864009DF86530FB
:205F6C009DF866109DF8674007F8010B9DF8672007F8013B2B4607F8011B610706F0070477
:205F8C0044EA916005F0030404AD40EA8410314607F8010B012400953846019405F0CDFF5B
:205FAC000A309AE042F206000DF165010EF0AEFD42F207000DF166010EF0A8FD42F204005F
:205FCC0019A90EF0A3FD04A809F022FB05460DF1670142F208000EF099FD9DF867000028EE
:205FEC0008BF002303D0012010F06DFC03469DF864009DF8657004F8010B9DF8666004F843
:20600C00017B9DF867209DF86770790704F8016B03F0030705F0070646EA916004AE40EA8C
:20602C008710294604F8010B002700962046019705F083FF001D50E042F2150011A90EF0C6
:20604C0065FD13AF42F2160039460EF05FFD15AD42F2170029460EF059FD17AE42F218000C
:20606C0031460EF053FD204611A9082211F0C0FC083408222046394611F0BAFC04F1080742
:20608C0008223846294611F0B3FC082207F10800314611F0ADFC202066E042F214000DF116
:2060AC0022010EF033FDBDF8221002200A1258E009A8002120220BF0D2FC42F2130009A950
:2060CC000EF024FD09A811F0B3FF024609A9204611F08EFC09A811F0ABFF80B244E042F260
:2060EC000E0002A90EF012FD0DF10A0142F20F000EF00CFD0DF10B0142F20A000EF006FD32
:20610C0003A942F210000EF001FD0DF10D0142F211000EF0FBFC0DF10E0142F212000EF0F0
:20612C00F5FCBDF808009DF80B209DF80C709DF80D609DF80E509DF80A1004F8010B02F036
:20614C000102001204F8010B07F0010042EA400206F0010042EA800205F0070042EA401291
:20616C00042004F8011B22701BB0F0BD2DE9F04F044609AF9A4691468846ADF1140D01949D
:20618C0012F086FA98490D680290A54208BF4D68974C6FF0010B35B105F1800011F0CAFFB2
:2061AC00002840F00F8110F0CBFE061C00F0158104F1B40012F062FAC6F80C80B4F98C00F0
:2061CC0099F80430401C86F83E306FF31F30A4F88C00C6F808A0B4F88C00019AB087834892
:2061EC00326197E80C004FF0000B2021DC4606F118071940104087E8030006F1200383E812
:20620C000018C6F834B062463263D9F80800B06386F83F20D9F80070009207B1776398F8BD
:20622C000C0000F00F00022804BFD8F808003063082740464368002B18BF002F40F0BE80F0
:20624C0000886FF30900B0F5305F18BF022006D196F83F0040F0100086F83F00082006F152
:20626C00180191E8800106F1180342EA080240EA070183E80600D4F8F8000199814207D11B
:20628C0094F80401410824BF00F0FE0084F80401002D70D0039504F1700101980D6888467F
:2062AC0010F0FAFAB1465F465FEA000A0FD1D8F800202AB1D4F8801030460BF0DBF918B9D2
:2062CC00BAF1000F03D103E001275D4630E0554645B12A68304629460BF0CCF938BB002A81
:2062EC001546F6D1039831460CF016FE051C02D0A9451AD1E5B9D9F80C10D8F80450087B50
:20630C0000F00F00022813D1087BC01140080FD2002D4AD1D4F8800050B1D4F88010304680
:20632C003A460BF0A7F918B93FE0082700E00227BB46BBF1010F04D104F17000494610F088
:20634C0064FFBBF1020F0BD12F682A6804F170001FB9494610F048FF02E0494610F033FF56
:20636C00BBF1080F04D196F83E10284611F01DF93BF0080004D104F17000314610F034FF01
:20638C001BF1030F11D096F83F00B6F93CB0009940F0800086F83F00019F87F8A410206F22
:2063AC0086421AD10CF0EAFD17E0B4F98C0000F6FF706FF31F30A4F88C0003E07F1E1846EF
:2063CC00FFB237E794F8040140F0040084F8040101986FF0020BC4F8F800029819F0B8FA8E
:2063EC00584605B0BDE8F08F60220020FFEFFF9F882100202DE9F04142F20400ADF1280DD1
:20640C000DF123010EF082FB42F205000DF122010EF07CFB42F2010069460EF077FB894CDB
:20642C0089489DF82310C4F8A80164204143C4F8A0118649C4F8C4119DF822104843C4F86F
:20644C00BC018348834EC4F8E001B07888B342F203000DF106010EF059FB10F015FD0546EC
:20646C000DF1060029460DF00EFC2D1A9DF8220084F89B5170B1009860B104F5DC700EF023
:20648C00D8FA04F5BA700AF0C3F9012084F8940184F8980142F202000DF106010EF036FB94
:2064AC000DF1060010F0E4FE04F5CE700EF0C1FA11E042F202000DF106010EF027FB0DF1B0
:2064CC00060010F0D5FE04F5CE700EF0B2FA04F5BA700DF023F996F83F040FF051FEC07B60
:2064EC00022804BF012084F8F40194F8F801002840F0A48004F12800002138220BF0AFFAD4
:20650C000026A681E08900EB800080B280460AF075FB04F128050127206110B912F0B2F8AC
:20652C002069424631460BF09AFA4B484B4BE06305F1080063630EF07CFA42F21B0001A99B
:20654C000EF0E4FABDF8040001A9A4F84C0042F21C000EF0DBFABDF8040001A9A4F84E0098
:20656C0042F21D000EF0D2FABDF8040009A920835D200EF06FFE9DF8240000280CBF84F8D6
:20658C005C6084F85C70B4F84C0040B100EB401080B20AF033FB606508B912F073F8B4F8CE
:2065AC004E0048B1410001EB800188B20AF026FBA06508B912F066F8208B38B1C00080B2D9
:2065CC000AF01CFB606108B912F05CF824490DF11A00082211F00CFA354609E060690DF1E5
:2065EC001A01082200EBC50011F002FA6D1CADB2208BA842F2DCB4F84C50668355B1606D4E
:20660C004FF6FF720146A0F81F206D1E8E7701F12100F7D1B4F84E504DB1A06D4FF6FF7125
:20662C00024681806D1ED67002F10600F8D1201D314606220BF013FA84F8F8710AB0BDE84A
:20664C00F081C046A0100020FD46010029C30000D585010008020020D1B50000002A7515F8
:20666C006C0100002DE9F0410D46924CDFF850C2DFF84882A188D128074613DCDFF844E244
:20668C00D12800F0A480713800F0E680401E00F0DF80401E00F0D680113810D04C3800F0F4
:2066AC00B28007E0D2387BD0401E61D0401E34D0401E2BD0384611F02BFDFF2802D1F42061
:2066CC00BDE8F0817C4C04EBC004217909B9E08860B1E088884208BFFB2000F0E9802A7839
:2066EC00914200F399809042C0F2968011F0D0FF2778628806464046A0F138017818294621
:20670C0011F076F9304619F023F9D0E02978022980F2828040466C1C71E0288881427BDD48
:20672C006746AA88D7F820338100860001EB001106EB0016D7F820035A52E988D7F8203310
